:020000040800F2
:1000000000800120350500088505000885050008E9
:10001000850500088505000885050008000000002A
:10002000000000000000000000000000850500083E
:10003000850500080000000085050008850500080A
:1000400000000000850500088505000885050008FA
:100050008505000885050008850500088505000858
:100060008505000885050008850500088505000848
:100070008505000885050008850500088505000838
:1000800085050008850500088505000800000000BA
:1000900000000000000000000000000085050008CE
:1000A0008505000885050008850500088505000808
:1000B00085050008850500088505000885050008F8
:1000C00085050008850500088505000885050008E8
:1000D000850500088505000885050008000000006A
:1000E000850500088505000885050008000000005A
:1000F000000000000000000000000000850500086E
:100100000000000085050008850500088505000839
:1001100000000000000000000000000000000000DF
:100120008505000885050008850500088505000887
:10013000850500080000000000000000000000002D
:10014000000000000000000000000000850500081D
:100150008505000885050008850500088505000857
:10016000850500088505000800000000000000006B
:10017000000000000000000000000000000000007F
:10018000000000000000000000000000000000006F
:0401900085050008D9
:1001A00010B5054C237833B9044B13B10448AFF3B1
:1001B00000800123237010BD5000002000000000CB
:1001C000B80E000808B5034B1BB103490348AFF351
:1001D000008008BD0000000054000020B80E000898
:1001E00001F0FF01102A2BDB10F0070F08D010F8E8
:1001F000013B013A8B422DD010F0070F42B3F6D1EC
:10020000F0B441EA012141EA014122F007047FF004
:1002100000070023F0E80256083C85EA010586EA5B
:10022000010685FA47F5A3FA87F586FA47F6A5FA97
:1002300087F68EB9EED1F0BC01F0FF0102F00702A3
:1002400032B110F8013B013A83EA010313B1F8D14E
:100250000020704701387047002D06BF354603382F
:10026000073815F0010F07D1013015F4807F02BF68
:10027000013015F4C03F0130F0BC0138704700BFB9
:1002800080B485B000AF78600023FB6002E0FB68BB
:100290000133FB607B684FF47A6202FB03F3FA6878
:1002A0009A42F4D300BF00BF1437BD465DF8047B0B
:1002B0007047000080B582B000AF0346FB71154B5C
:1002C0005B69144A23F0FF035361124B5A69FB79AF
:1002D000104913434B610F4B5B690E4A23F4807343
:1002E00053610C4B5B690B4A23F400735361094B58
:1002F0005B69084A43F4806353610220FFF7C0FF43
:10030000044B5B69034A23F48063536100BF0837E1
:10031000BD4680BD0000024080B582B000AF0346FC
:10032000FB71154B5B69144A23F0FF035361124BB9
:100330005A69FB79104913434B610F4B5B690E4AB5
:1003400043F4807353610C4B5B690B4A23F40073D5
:100350005361094B5B69084A43F48063536102208F
:10036000FFF78EFF044B5B69034A23F480635361FC
:1003700000BF0837BD4680BD0000024080B500AF19
:100380001420FFF77DFF3820FFF794FF0C20FFF7C4
:1003900091FF0620FFF78EFF0120FFF78BFF00BFC4
:1003A00080BD80B582B000AF786006E07B685A1CE3
:1003B0007A601B781846FFF7AFFF7B681B78002B2D
:1003C000F4D100BF00BF0837BD4680BD80B400AF88
:1003D0001C4B1B6B1B4A43F0010313631A4B1B6836
:1003E000194A43F080031360174B1B6A164A43F403
:1003F00040531362134B5B6C124A43F480335364D3
:10040000124B43F67F629A62104B4FF47A62DA62C3
:100410000E4B00225A620D4B9B690C4A43F48073C9
:1004200093610A4B1B6A094A43F010031362074B9E
:100430001B68064A43F00103136000BFBD465DF828
:10044000047B704700380240000002400040014039
:1004500080B58EB000AF164B1B6B154A43F00103FD
:100460001363144B1B68134A9B0D9B051360114BC0
:100470001A681049104B13430B60FFF77FFFFFF71B
:10048000A5FF8020FFF716FF0C48FFF78AFFC0206A
:10049000FFF710FF0A4B9A6B3B1D0A49184600F004
:1004A00073F83B1D1846FFF77CFF00BFEFE700BF66
:1004B000003802400000024055551500D00E0008DB
:1004C00000400140E00E000880B586B000AF7860C3
:1004D000144A154BD31A7B617B693B61134B1B6834
:1004E000002B02D1114B124A1A60104B1A687B681C
:1004F00013443A699A4207D200F066F803460C2288
:100500001A604FF0FF3309E0084B1B68FB60074B94
:100510001A687B681344054A1360FB68184618374D
:10052000BD4680BD00800120000400006C0000205A
:10053000B80100200D488546AFF300800C480D49F6
:100540000D4A002302E0D458C4500433C4188C422E
:10055000F9D30A4A0A4C002301E013600432A24294
:10056000FBD300F037F8FFF773FFFEE700800120B0
:1005700000000020500000202C0F00085000002038
:10058000B8010020FEE700000EB400B59CB01DAB22
:10059000029006906FF000410948079104910949C3
:1005A00053F8042B05910068019302A900F08CF91F
:1005B000029B00221A701CB05DF804EB03B0704778
:1005C000000000200802FFFF014B1868704700BFC1
:1005D0000000002070B50D4D0D4C641BA4100026CA
:1005E000A64209D10B4D0C4C00F066FC641BA41014
:1005F0000026A64205D170BD55F8043B9847013648
:10060000EEE755F8043B98470136F2E7240F00085F
:10061000240F0008240F0008280F000870477047B7
:1006200038B50546002941D051F8043C0C1F002B79
:10063000B8BFE41800F0E0F81D4A136833B96360EE
:1006400014602846BDE8384000F0DCB8A34208D961
:10065000206821188B4201BF19685B680918216066
:10066000EDE71A465B680BB1A342FAD9116850183E
:10067000A0420BD120680144501883421160E0D1A0
:1006800018685B68536008441060DAE702D90C23ED
:100690002B60D6E7206821188B4204BF19685B687D
:1006A000636004BF091821605460CAE738BD00BF09
:1006B000B401002070B50F4E0C463168054611B9E3
:1006C00000F0A6FB30602146284600F0A1FB431C49
:1006D00003D14FF0FF34204670BDC41C24F0030446
:1006E000A042F8D0211A284600F092FB0130F2D146
:1006F000EFE700BFB00100202DE9F843CD1C25F045
:10070000030508350C2D38BF0C25002D064601DBEE
:10071000A94204D90C2333600020BDE8F883DFF838
:10072000D48000F069F8D8F800301C4644BB294654
:100730003046FFF7BFFF431C044658D1D8F80040AD
:100740002746002F43D1002C4BD023683946304632
:1007500004EB030900F05CFB814542D121686D1A6E
:1007600029463046FFF7A6FF01303AD023682B44D4
:100770002360D8F800305A6862BBC8F800700FE0F8
:100780002268521B20D40B2A17D96119A342256075
:1007900018BF5960636808BFC8F8001062514B6009
:1007A000304600F02FF804F10B00231D20F0070065
:1007B000C21A1CBF1B1AA350AFE76268A3420CBF4A
:1007C000C8F800205A60EBE723466468AEE73C4671
:1007D0007F68B6E71A465B68A342FBD100235360EB
:1007E000DEE70C233360304600F00CF894E7056038
:1007F000D6E700BFB40100200148FFF70FBF00BFDC
:10080000AC0100200148FFF70ABF00BFAC01002087
:100810002DE9F0478E681F46BE420B6882460C46A3
:1008200090462DD8B1F90C2012F4906F26D065694E
:10083000096905EB4505A3EB010905EBD5757B1CA3
:100840004B446D109D4238BF1D46530527D52946A0
:10085000FFF752FF064660B321694A4600F0E8FA06
:10086000A38923F4906343F08003A381266165612B
:100870004E44A5EB09052660A5603E46BE4200D960
:100880003E4620683246414600F0A8FAA3689B1B0A
:10089000A3602368334423600020BDE8F0872A4624
:1008A00000F0D4FA06460028E0D121695046FFF74F
:1008B000B7FE0C23CAF80030A38943F04003A3819C
:1008C0004FF0FF30E9E700002DE9F04F98468B89A3
:1008D0001B069DB007460D46144610D50B6973B92B
:1008E0004021FFF709FF2860286130B90C233B60E5
:1008F0004FF0FF301DB0BDE8F08F40236B61002347
:10090000099320238DF82930CDF80C803023DFF8AF
:100910009C818DF82A304FF0010923469A4613F83E
:10092000012B0AB1252AF9D1BAEB040B0BD05B4697
:10093000224629463846FFF76BFF013000F0A780BA
:10094000099A5A4409929AF80030002B00F09F80CF
:1009500000234FF0FF32CDE905230AF1010A049389
:1009600007938DF853301A935446052214F8011B4F
:100970004E48FFF735FC049AD8B9D00644BF20236F
:100980008DF85330110744BF2B238DF853309AF85C
:1009900000302A2B15D0079A544600204FF00A0C3D
:1009A000214611F8013B303B092B4BD9B0B10792DE
:1009B00014E0A0EB080309FA03F313430493A246DF
:1009C000D2E7039B191D1B680391002BBBBF5B4241
:1009D00042F0020207930793B8BF049223782E2BAC
:1009E0000AD163782A2B32D1039B1A1D1B6803920C
:1009F00043EAE37302340593DFF8C0A021780322B1
:100A00005046FFF7EDFB38B1049BA0EB0A004022F3
:100A1000824013430134049314F8011B24488DF8D9
:100A200028100622FFF7DCFB002836D0214B1BBB29
:100A3000039B073323F0070308330393099B3344D5
:100A400009936AE70CFB02320C460120A8E7002359
:100A50000134059319464FF00A0C204610F8012B7B
:100A6000303A092A03D9002BC6D00591C4E70CFB04
:100A7000012104460123F0E703AB00932A460E4B05
:100A800004A93846AFF30080421C0646D6D1AB8994
:100A90005B063FF52DAF09982CE703AB00932A4680
:100AA000054B04A9384600F079F8EDE7E60E00089A
:100AB000F00E00080000000011080008EC0E00080D
:100AC0002DE9F047164698468A680B69DDF82090B4
:100AD0009342B8BF1346336091F8432007460C4653
:100AE0000AB1013333602368990642BF3368023389
:100AF0003360256815F0060506D104F1190AE3688C
:100B000032689B1AAB4226DC94F843302268003BE3
:100B100018BF012392062BD404F143024146384604
:100B2000C84701301ED02368226903F00603042B56
:100B300002BFE5683368ED1AA3680CBF25EAE575C6
:100B400000259342C4BF9B1AED1800261A34B54203
:100B50001AD1002008E00123524641463846C847D2
:100B6000013003D14FF0FF30BDE8F0870135C6E713
:100B7000E1185A1C302081F84300224494F84510B3
:100B800082F843100233C7E7012322464146384624
:100B9000C8470130E6D00136D9E700002DE9FF470C
:100BA0000F7E0C9E782F914680460C469A4601F1A6
:100BB000430207D8622F0AD8002F00F0D280582FA6
:100BC00000F0B98004F1420684F842703AE0A7F1DF
:100BD0006303152BF6D801A151F823F0350C00085A
:100BE000490C0008C50B0008C50B0008C50B000820
:100BF000C50B0008490C0008C50B0008C50B000810
:100C0000C50B0008C50B0008490D0008730C00084F
:100C1000030D0008C50B0008C50B00086B0D00088C
:100C2000C50B0008730C0008C50B0008C50B0008B5
:100C30000B0D000833681A1D1B68326004F1420670
:100C400084F8423001239DE033682068191D31602B
:100C5000060601D51D6803E04506FBD5B3F9005033
:100C6000002D03DA2D236D4284F8433059480A23BE
:100C700011E021683368080653F8045B02D4490682
:100C800048BFADB26F2F5348336014BF0A23082307
:100C9000002184F843106668A660002EA2BF216878
:100CA00021F0040121600DB9002E4BD01646B5FB92
:100CB000F3F103FB1157C75D06F8017D2F46BB42D8
:100CC0000D46F4D9082B0BD12368DF0708D523691B
:100CD00061689942DEBF302306F8013C06F1FF3619
:100CE000921B2261CDF800A04B4603AA2146404644
:100CF000FFF7E6FE01304AD14FF0FF3004B0BDE807
:100D0000F087236843F0200323603348782784F872
:100D10004570236831681F0651F8045B02D45F06F2
:100D200048BFADB23160D90744BF43F02003236010
:100D30001DB11023ACE72748E9E7236823F020031F
:100D40002360F6E71646BDE7336825686169181D1C
:100D500030602E061B6801D5196002E06806FBD5DD
:100D60001980002323611646BCE733681A1D3260E0
:100D70001E68626800213046FFF732FA08B1801B16
:100D8000606063682361002384F84330AAE7236925
:100D9000324649464046D0470130ADD023689B07D4
:100DA00013D4E068039B9842B8BF1846A6E7012316
:100DB000324649464046D04701309DD00135E36870
:100DC00003995B1AAB42F2DCEBE7002504F119064C
:100DD000F5E700BFF70E0008080F0008884210B5BD
:100DE00001EB020402D98442234607D8431EA142E4
:100DF00008D011F8012B03F8012FF8E7024401464F
:100E00008A4200D110BD13F8014D02F8014DF7E7F9
:100E100038B5064D0023044608462B60FFF754FB07
:100E2000431C02D12B6803B1236038BDA801002008
:100E30000A44914200F1FF3300D1704710B511F818
:100E4000014B03F8014F9142F9D110BD2DE9F0415A
:100E5000804615460C4621B9BDE8F0411146FFF722
:100E60004BBC2AB9FFF7DCFB00242046BDE8F0812B
:100E700000F01AF88542064602D8B5EB500FF4D8B8
:100E800029464046FFF738FC07460028ECD0B5421B
:100E90002A46214628BF3246FFF7CAFF2146404670
:100EA000FFF7BEFB3C46E0E751F8043C181F002B5F
:100EB000BCBF0B58C0187047F8B500BFF8BC08BCE1
:100EC0009E467047F8B500BFF8BC08BC9E46704708
:100ED00043415054555245442056414C554500001D
:100EE0002530346C7500232D302B2000686C4C00AD
:100EF000656667454647003031323334353637381A
:100F00003941424344454600303132333435363777
:0C0F10003839616263646566000000000F
:080F1C00C4F2FF7F0100000098
:040F2400C5010008FB
:040F2800A10100081B
:100F2C00040000200000000070000020D800002009
:100F3C004001002000000000000000000000000044
:100F4C000000000000000000000000000000000095
:100F5C000000000000000000000000000000000085
:100F6C000000000000000000000000000000000075
:0400000508000535B5
:00000001FF
